:10000000000000308A005D28831687178312871B43
:100010001228831607178312071B12280130A1002C
:1000200027282728831607178312071B1B2802304F
:10003000A10027282728831687178312871B2428C7
:100040000330A100272827280030A10027288A1183
:100050007E28831687011030831287008A11952825
:100060000230A602031C40282630840083130008B7
:10007000031940283E283C283D280000800B3B28DF
:100080000034831687018312250887000034A503F6
:1000900025080F3C031C5028C830A6003020412002
:1000A0008A119528A50A25080F3C031C5B28C83037
:1000B000A600302041208A119528840183131F3027
:1000C0008305013083168F000F08831203171F105A
:1000D0009F101F119F1103131F13003003179E0061
:1000E00099019A0183169E0183129B0103138D12BD
:1000F000A501C03083168700831204282108013A25
:1001000003198928033A03198A28013A03198B280D
:100110008C282928472852286430A60030208316CE
:0E012000870183122508870095287D289628E0
:02400E00D430AC
:00000001FF
;PIC16F690
