:10000000000000308A0050280230A602031C142889
:10001000263084008313000803191428122810289E
:1000200011280000800B0F2800346430A600042043
:100030008316870183122508870000348316870101
:1000400083128701831687178312871F2E28831632
:1000500007178312071F2E28A5014C2883160717A0
:100060008312071F3D28A50803193B28A503643008
:10007000A6000420152000004C2883168717831241
:10008000871F4C2825080E3C031C4B28A50A64300A
:10009000A60004201520000015201E288A117128B2
:1000A000840183131F308305013083168F000F08EE
:1000B000831203171F109F101F119F1103131F138B
:1000C000003003179E0099019A0183169E01831246
:1000D0009B0103138D12A501C03083168700831284
:0400E0001E2871283D
:02400E00D430AC
:00000001FF
;PIC16F690
