:1000000000308A00152800000230A702031C1428C3
:10001000273084008313000803191428122810289D
:1000200011280000800B0F280034840183131F3037
:100030008305013083168F00831203171F109F1052
:100040001F119F1103131F13003003179E00990106
:100050009A0183169E0183129B0103138D120030B7
:100060008316870064308312A700042083160710CC
:10007000831207100430A600E130A7000420A60B6D
:100080003C28831607108312071483163228630056
:02400E00D430AC
:00000001FF
;PIC16F690
