:1000000000308A004A2800000030831687008312DF
:1000100003171F109F101F119F1103131F13013887
:1000200003179E00831603131F169F161F138312B8
:100030009F131F140030A1001F08C33921049F0023
:100040008A116528A6019F149F1824281E08A6005F
:100050002608A7002708A8003230A9002908A10116
:100060002802031836282808A0004228A0010830DA
:10007000AA00A80DA00D290820020318A000A10DB8
:10008000AA0B3928831687018312210887002228AA
:100090008A116628840183131F308305013083167B
:1000A0008F00831203171F109F101F119F1103133E
:1000B0001F13003003179E0099019A0183169E01B9
:0E00C00083129B0103138D1204282228630073
:02400E00D430AC
:00000001FF
;PIC16F690
