:1000000000308A00512800000030831687008312D8
:1000100003171F109F101F119F1103131F13043884
:1000200003179E00831603131F169F161F138312B8
:100030009F131F140830A1001F08C33921049F001B
:100040008A117F28AF019F149F1824281E08AF0033
:100050002F08B000B1013008B2003230B3003308CD
:10006000A1013202031837283208A0004328A0015A
:100070000830B400B20DA00D330820020318A00010
:10008000A10DB40B3A282530210784008313000802
:10009000B1008316870183123108870022288A1154
:1000A0008028840183131F308305013083168F005D
:1000B000831203171F109F101F119F1103131F138B
:1000C000003003179E0099019A0183169E01831246
:1000D0009B0103138D124030A5007930A600243017
:1000E000A7003030A8001930A9001230AA00203033
:1000F000AB000F30AC00AD010C30AE00042822285C
:0201000063009A
:02400E00D430AC
:00000001FF
;PIC16F690
