:10000000000000308A000428840183131F30830518
:10001000013083168F000F08831203171F109F10E3
:100020001F119F1103131F13003003179E00990126
:100030009A0183169E0183129B0103138D12A50161
:10004000A601A701A801A901AA01AB01AC01831671
:1000500087018312A5018701A50B2C280000A50BA1
:100060002F280000A50B32280000A50B3528000022
:10007000A50B38280000A50B3B280000A50B3E2847
:100080000000A50B4128000001308700A50B462881
:0600900000002A284A28A6
:02400E00D430AC
:00000001FF
;PIC16F690
