:10000000000000308A000428840183131F30830518
:10001000013083168F000F08831203171F109F10E3
:100020001F119F1103131F13003003179E00990126
:100030009A0183169E0183129B0103138D12A50161
:10004000A601A701A801A901AA01AB01AC01831671
:1000500087018312A501A601A701A801A901AA0190
:10006000AB018701A50B32280000A60B3528000044
:10007000A70B38280000A80B3B280000A90B3E283E
:100080000000AA0B41280000AB0B442800000130FF
:0600900087002A284A281F
:02400E00D430AC
:00000001FF
;PIC16F690
