:1000000000308A0004280000840183131F30830518
:10001000013083168F00831203171F109F101F11CA
:100020009F1103131F13003003179E0099019A01BB
:1000300083169E0183129B0103138D12A501A60155
:10004000831687018312FF30A5008701A50B2628A0
:100050000000A50B29280000A50B2C280000A50BEB
:100060002F280000A50B32280000A50B3528000022
:10007000A50B38280000A50B3B28000001308700A5
:0A008000A50B4028000023286300B0
:02400E00D430AC
:00000001FF
;PIC16F690
