:10000000000000308A003528B801B80138083702EE
:10001000031C32283808B9002C30390784008313B8
:100020000008BA008316870183123A08870004305B
:10003000B900FA30BA003A3084008313000803197B
:100040002E280230A100A001A00B2428A10B2328F8
:100050009730A000A00B2A28800B2128B90B192863
:10006000B80A062804288A117628840183131F30D1
:100070008305713083168F000F08831203171F103A
:100080009F101F119F1103131F13003003179E00B1
:1000900099019A0183169E0183129B0103138D120D
:1000A0007E30A5007D30A6007B30A7007730A80009
:1000B0006F30A9005F30AA003F30AB004030AC0089
:1000C0007930AD002430AE003030AF001930B000D0
:1000D0001230B1000230B2007830B300B4011030F9
:0E00E000B5000630B6000930B70004287628B7
:02400E00D430AC
:00000001FF
;PIC16F690
