:10000000000000308A0056281F10831687128312C2
:1000100087120D3097009C010F30831603179D0047
:1000200083120313260895000030A10004389200C3
:1000300025088316920083128A117C2883160616DF
:100040008312061A29282508260203182828A50342
:100050004928831686168312861A34282508C73C39
:10006000031C3328A50A4928831606178312061B8A
:100070003F282608013C03183E28A603492883167A
:1000800086178312861B492825082602031849284B
:10009000A60A260895000030A10004389200250821
:1000A000831692001F2883128A117D2884018313EE
:1000B0001F308305013083168F000F08831203174A
:1000C0001F109F101F119F1103131F1300300317E0
:1000D0009E0099019A0183169E0183129B010313CE
:1000E0008D126430A5003230A600003083168700E0
:0C00F000F0308600831204281E287D28B2
:02400E00D430AC
:00000001FF
;PIC16F690
