:1000000000308A00E92B00000A108A100A118207CA
:1000100056340034343084008313000803191D283B
:100020000230A100A001A00B1328A10B12289730C9
:10003000A000A00B1928800B102800340030831674
:100040008700831203171F109F101F119F110313A6
:100050001F13043803179E00831603131F169F16E1
:100060001F1383129F171F140830A1001F08C339E4
:1000700021049F002830B4000A20831686128312C0
:1000800086128316061383120613831686138312B1
:1000900086178316870138308312870083168613EC
:1000A000831286131A30A000A00B542800002830B9
:1000B000B4000A2083168612831286128316061352
:1000C00083120613831686138312861783168701FD
:1000D00038308312870083168613831286131A30F2
:1000E000A000A00B712800008316861383128613CC
:1000F0008316861283128612831606138312061342
:100100008316861383128617831687010F30831296
:10011000870083168613831286131A30A000A00B63
:100120008F28000083168612831286128316061308
:10013000831206138316861383128617831687018C
:1001400001308312870083168613831286130230D0
:10015000B4000A20831686128312861283160613B1
:10016000831206138316861383128617831687015C
:100170000630831287008316861383128613C830D5
:10018000B4000A208A11062CA001A101A201A3013A
:10019000C901CA01CB01CC01480847044604450403
:1001A000031902292030CD000310C10DC20DC30D6B
:1001B000C40DC90DCA0DCB0DCC0D48084C02031D52
:1001C000EB2847084B02031DEB2846084A02031D93
:1001D000EB2845084902031CFC284508C9024608CB
:1001E000031C460FCA024708031C470FCB024808EE
:1001F000031C480FCC020314A00DA10DA20DA30DEA
:10020000CD0BD428493084008313003425088400A2
:1002100083132618831741088000840A8001A50AE9
:100220000319A60A00340408B9003808BB000319F2
:10023000A5293708C4003608C3003508C2003408B1
:10024000C100C801C7012030C6008230C500410886
:1002500003199729C900450803199729C9070318E5
:1002600038297F30C902031C9729031997293C2993
:100270008130C907031897294908A000A101A201EC
:10028000A3014208CD00CD174308CC004408CB00A1
:100290001830C900CA014B1C65294808A307031C74
:1002A0005729A20A031D5729A10A0319CA1747088B
:1002B000A207031C5E29A10A0319CA174608C30036
:1002C000C3174308A1070318CA17CA0DA10CA20C33
:1002D000A30CCD0CCC0CCB0C0310C90B4A2901305C
:1002E000A00703189729A11B7C29CD0DA30DA20DF2
:1002F000A10DA00303199729CD1F8D29A30A031D62
:100300008D29A20A031D8D29A10A031D8D29A10C87
:10031000A20CA30CA00A031997294208CA00460898
:10032000CA06CA1F9529A1179B29A1139B29A001C1
:10033000A101A201A3012308B7002208B6002108E9
:10034000B5002008B400BB0B19293708C4003608D3
:10035000C3003508C2003408C1004108B63CC100E2
:10036000A3014208C500C2170310C20CC30CC40C81
:10037000A30CA20CA10CA00CC10BB429C51FCB2946
:10038000A009A109A209A309A00A0319A10A031936
:10039000A20A0319A30A2308B7002208B6002108FD
:1003A000B5002008B400B71FE229B903B916B40993
:1003B000B509B609B709B40A0319B50A0319B60A8B
:1003C0000319B70A3B30C0009A30BF00CA30BE00E4
:1003D000BD010A30BB0038080319B90A3708C40048
:1003E0003608C3003508C2003408C1004008C80000
:1003F0003F08C7003E08C6003D08C500C4200008ED
:10040000B400840A0008B500840A0008B600840A13
:100410000008B700FD308407A008031D222A380A0F
:100420003B020319222A39080319242A0F393B02F7
:1004300003191C2A0318542AB91B542A391B242ACD
:100440002030502A2030B905B91E322AB912380896
:10045000031DB9032008B9002D30C1000621390859
:10046000A000B90138083B02031D402A2008B9004A
:100470002E30C10006213908A0002030B905003017
:100480003030B91E502AB9123808031DB9032008AC
:10049000B9002D30C10006213908A000B901303063
:1004A000A0072008C10006214008C4003F08C3007F
:1004B0003E08C2003D08C100C801C701C6010A309C
:1004C000C500C4202308C0002208BF002108BE00C8
:1004D0002008BD00BB0BEE298A11B52B83168701BE
:1004E00083123508870083168612831286168316B8
:1004F0000613831206138316861383128617831638
:100500008613831286131A30A000A00B852A0000E0
:100510000034A701A801A901AA01AB013030AC0049
:100520002E30AD003030AE00AF00B001B101B201ED
:10053000B3019F149F189A2A1E08A30083161E0851
:100540008312B4002308B5003508B7003408B6009C
:100550008E30A0003708A1003608A200A301A10830
:10056000031DBC2A2208A100A2010830A002A10894
:10057000031DBC2AA001C42A0310A11BC32AA20D7B
:10058000A10DA003BC2AA1132308B9002208B800BA
:100590002108B7002008B6008330BD001130BC0030
:1005A0005A30BB008630BA0036080319992BC200B6
:1005B0003A080319992BC202031CE32A7F30C207B1
:1005C0000318992BE92A8130C202031C992B0319C5
:1005D000992B4208A000A101A201A301C101370883
:1005E000C000C0173808BF003908BE001930C2006B
:1005F0003D08BE0203180C2B0130BF0203180C2B60
:10060000C00203180C2BC10203180C2BC10AC00A2C
:10061000BF0A3D08BE073E2B3C08BF020318272B2C
:100620000130C0020318272BC1020318272BC10A6F
:10063000C00A3C08BF073D08BE07031C3E2BBF0A8B
:10064000031D3E2BC00A031D3E2BC10A3E2B3B0857
:100650008038C00203183D2B0130C10203183D2B26
:10066000C10A3B088038C0073C08BF07031C1B2B8E
:10067000C00A031D1B2BC10A1B2B2314C20B412BC9
:100680004C2B0310BE0DBF0DC00DC10D0310A30DEB
:10069000A20DA10DC30DF82A431C542B0310A10C6D
:1006A000A20CA30CC30C572BA0030319992BC31B3B
:1006B000802B0310BE0DBF0DC00DC10D3D08BE0245
:1006C00003186C2B0130BF0203186C2BC0020318F7
:1006D0006C2BC102031C8F2B3C08BF020318772B25
:1006E0000130C0020318772BC102031C8F2B3B087B
:1006F0008038C0020318802B0130C102031C8F2BED
:10070000A30A031D8F2BA20A031D8F2BA10A031D11
:100710008F2BA00A0319992BA10CA20CA30C37084C
:10072000C2003B08C206C21F972BA1179D2BA11325
:100730009D2BA001A101A201A3012308AA00220868
:10074000A9002108A8002008A700A6012C30A500B8
:10075000C93084002A08B7002908B6002808B50067
:100760002708B4000230B80013298316870101302E
:10077000831287008316861283128612831606134D
:100780008312061383168613831286178316861325
:10079000831286130230B4000A20AB012B08033CFD
:1007A000031CDC2B2C302B07840083130008B400BF
:1007B000B5006E22AB0ACE2BB401340804200038F9
:1007C0000319E62BB40AB5006E22DD2B892A8A11A3
:1007D000072C840183131F308305713083168F002B
:1007E000831203171F109F101F119F1103131F1354
:1007F000003003179E0099019A0183169E0183120F
:100800009B0103138D12A501A6011E28892A6300EE
:02400E00D430AC
:00000001FF
;PIC16F690
