:10000000000000308A004B290A108A100A1182076A
:100010005434753474346F347234693461346C34EC
:100020002034383420342D343E3420344B34793469
:100030006C3475346B34653420344D34633444345B
:100040006F347534673461346C346C3420342D343F
:100050002034323431343134323431343334303486
:1000600032343034003428308400831300080319FC
:1000700046280230A100A001A00B3C28A10B3B2880
:100080009730A000A00B4228800B392800340030A4
:100090008316870028308312A800332083160511A9
:1000A0008312051183160613831206138316051295
:1000B0008312051683168701383083128700831652
:1000C0000512831205121A30A000A00B652800004B
:1000D0002830A800332083160511831205118316DA
:1000E0000613831206138316051283120516831650
:1000F0008701383083128700831605128312051298
:100100001A30A000A00B822800008316051283126B
:100110000512831605118312051183160613831227
:1001200006138316051283120516831687010F30F6
:100130008312870083160512831205121A30A0005D
:10014000A00BA02800008316051183120511831649
:1001500006138312061383160512831205168316DF
:10016000870101308312870083160512831205125E
:100170000230A8003320831605118312051183165F
:1001800006138312061383160512831205168316AF
:100190008701063083128700831605128312051229
:1001A000C830A800332000008A117029A80128084F
:1001B0000420A80AA00020080C1EDC2899002A3080
:1001C0002802031DD7288C1EE3281A08A700270839
:1001D0000C1EE82899002508083C03190D2927085A
:1001E000A80083168701831228088700831605114B
:1001F0008312051583160613831206138316051240
:100200008312051683160512831205121A30A000F8
:10021000A00B08290000A50A4829260B10292D2922
:100220000130A600A50183168701C0308312870024
:100230008316051183120511831606138312061304
:1002400083160512831205168316051283120512F2
:100250000230A800332000004829A601A50183161A
:10026000870101308312870083160511831205115F
:1002700083160613831206138316051283120516BE
:1002800083160512831205120230A80033200000E5
:10029000E3288A117129840183131F30830571308B
:1002A00083168F000F089B110C309900A230980024
:1002B00090308312980003171F109F101F119F1179
:1002C00003131F13003003179E0099019A01831630
:1002D0009E0183129B0103138D12A501A6014728DD
:0402E000D628712982
:02400E00D430AC
:00000001FF
;PIC16F690
